:020000040800F2
:100000000871002085020008414800089D4300084F
:1000100025480008011300087D5600080000000074
:10002000000000000000000000000000C501000802
:10003000091800080000000021020008B14C000867
:100040009F0200089F0200089F0200089F0200080C
:100050009F0200089F0200089F0200089F020008FC
:100060009F0200089F0200089F0200089F020008EC
:10007000ED1700089F0200089F0200089F02000879
:100080009F0200089F0200089F0200089F020008CC
:10009000051300089F0200089F0200089F02000845
:1000A0009F0200089F0200089F0200089F020008AC
:1000B0009F0200089F020008854D00089F0200086B
:1000C0009F0200089F0200089F0200089F0200088C
:1000D0009F020008915500089D550008A955000889
:1000E0009F0200089F0200089F0200089F0200086C
:1000F0009F0200089F0200089F0200089F0200085C
:100100009F0200089F0200089F0200089F0200084B
:100110009F0200089F0200089F0200089F0200083B
:100120009F0200089F0200089F0200089F0200082B
:100130009F0200089F0200089F0200089F0200081B
:100140001D1300084D1300089F0200089F020008BD
:100150009F0200089F0200089F020008C155000886
:100160009F0200089F0200089F0200089F020008EB
:100170009F0200089F0200089F0200080000000084
:100180009F0200089F0200089F0200089F020008CB
:100190009F0200089F0200089F0200089F020008BB
:1001A0009F0200089F0200089F020008DFF810D09D
:1001B00000F0EAFB00480047C5670008AFF3008085
:1001C000087100202C4B19680868B0E8F04F80F3E4
:1001D0000988BFF36F8F4FF0000080F311887047DC
:1001E0000000000008480068006880F308884FF0AD
:1001F000000080F3148862B661B6BFF34F8FBFF37F
:100200006F8F00DF00BF00BF08ED00E0DFF80C00DB
:10021000016841F470010160704700BF88ED00E0A3
:10022000EFF30980BFF36F8F134B1A681EF0100FA6
:1002300008BF20ED108A20E9F04F106009B44FF09C
:10024000500080F31188BFF34F8FBFF36F8F07F01B
:1002500031FD4FF0000080F3118809BC196808686F
:10026000B0E8F04F1EF0100F08BFB0EC108A80F31A
:100270000988BFF36F8F704780020020EFF305807D
:10028000704700000648804706480047FEE7FEE743
:10029000FEE7FEE7FEE7FEE7FEE7FEE7FEE7FEE736
:1002A000694D0008AD0100082DE9F05F054600200A
:1002B00092469B4688460646814640241BE02846D7
:1002C00041464746224600F058FA53465A46C01A5D
:1002D000914110D311461846224600F03FFA2D1ADC
:1002E00067EB01084F4622460120002100F036FA54
:1002F00017EB00094E41201EA4F10104DFDC484643
:1003000031462A464346BDE8F09FD2B201E000F8EC
:10031000012B491EFBD270470022F6E710B51346A9
:100320000A4604461946FFF7F0FF204610BD2DE9A6
:10033000FE4F804681EA0300C00F0C46009021F07A
:10034000004123F00045B8EB0200A94105D2404628
:10035000214690461C460B46024623F000401043BF
:1003600047D0270DC7F30A00C3F30A510290401A81
:10037000019040286BDAC3F3130040F4801B00980F
:10038000924620B10023D2EB030A63EB0B0B0198DA
:100390005946C0F14002504600F0E0F906460D46CD
:1003A00050465946019A00F0F8F910EB08006141F7
:1003B000002487EA115284EAE7731A4340D0009A76
:1003C00062B3019A012A4FEA075215DC001B61EB68
:1003D00002014FF0004202EA0752CDE90042001C40
:1003E00041F5801132462B4600F02FFA03B0BDE8EC
:1003F000F08F40462146F9E7001B61EB0201001C2B
:1004000041F5801300185B412018A2F5001747EB57
:10041000030140EAD570B6196D4111E06D084FEA4D
:10042000360645EAC0754FEA0752001B61EB020130
:10043000001C41F5801149084FEA30000019514174
:1004400032462B4603B0BDE8F04F00F0EFB90098FC
:10045000012240000023D0EB020263EBE07300981E
:1004600021464FEAE074B8EB000061EB0401E9E7D4
:1004700083F000435BE781F0004158E72DE9FE4F30
:1004800081EA030404F0004421F0004100944FF09D
:10049000000B23F0004350EA01045ED052EA03044B
:1004A0005BD0C3F30A54C1F30A552C44A4F2F334CD
:1004B0000194A0FB0254C1F3130141F48011C3F372
:1004C000130343F4801301FB024400FB034E840A30
:1004D000970A44EA815447EA8357A4FB07680295C8
:1004E0008D0A05FB07854FEA932C04FB0C54270566
:1004F000029D4FEA065847EA1637B5EB08056EEB42
:10050000070C870E920E47EA811742EA8312A7FB77
:100510000201B6EB0B0164EB00042B0D43EA0C3334
:100520005E1844EB1C50DA465146E7FB0201C5F366
:1005300013044FEA0B3343EA14534FEA0432019C8D
:1005400043EA0603A4F10C040294009CCDE900B434
:1005500000F07BF903B0BDE8F08F00200146F9E719
:100560002DE9F04D81EA030404F0004B21F0004531
:1005700014464FF0000A23F0004150EA050220D053
:1005800054EA01021DD0C5F30A570246C5F313030E
:10059000C1F31300C1F30A5640F4801543F48013ED
:1005A000A7EB0608101BD64608F2FD3873EB0500D2
:1005B00002D308F1010801E092185B41B8F1000F85
:1005C00003DA00200146BDE8F08D00204FF48011D1
:1005D000064684460EE0171B73EB050705D3121B76
:1005E00063EB050306434CEA010C49084FEA30006F
:1005F00092185B4150EA0107EDD152EA030012D094
:1006000082EA040083EA0501084305D0101BAB41D0
:1006100006D20122002306E000224FF0004302E050
:100620006FF0010253101AEB06004CEB085110EB6F
:100630000A0041EB0B01BDE8F04D00F0F7B80EB534
:10064000C10F80EAE0700844CA07002140F233433A
:100650008DE80E000A460B4600F0F7F803B000BD27
:1006600070B5C1F30A5201F000450024C1F3130133
:1006700040F2FF3341F480119A4201DA002070BD4C
:1006800040F233439A42A2F2334203DC524200F07A
:1006900074F800E090402C43F1D0404270BD00F06F
:1006A000004230F000400AD0C10D01F56071C0F386
:1006B000160042EA0151C20840071143704700206A
:1006C0000146704730B5041E71F1000404DB4FF0A1
:1006D0000044404264EB0101141E73F1000405DB89
:1006E0001C464FF00043524263EB04038B4208BFA9
:1006F000824230BD30B5041E71F1000404DB4FF0BE
:100700000044404264EB0101141E73F1000405DB58
:100710001C464FF00043524263EB0403994208BF6A
:10072000904230BD01F0004330B421F0004150EA66
:10073000010206D00A0DA2F56072C1F31301002A6E
:1007400002DC30BC00207047440F44EAC104C10001
:10075000E01830BC00EBC25000F031B8202A04DBB6
:10076000203A00FA02F1002070479140C2F12003C4
:1007700020FA03F3194390407047202A04DB203A03
:1007800021FA02F00021704721FA02F3D040C2F1B1
:1007900020029140084319467047202A06DBCB17F8
:1007A000203A41FA02F043EAE07306E041FA02F32C
:1007B000D040C2F1200291400843194670470029F9
:1007C000A8BF7047401C490008BF20F001007047D7
:1007D00010B4B0FA80FC00FA0CF050EA010404BF37
:1007E00010BC704749B1CCF1200421FA04F411FA8D
:1007F0000CF118BF012121430843A3EB0C01CB1DD1
:100800004FEA00614FEA102042BF002010BC704741
:1008100000EBC35010440029A4BF10BC7047401C1B
:10082000490008BF20F0010010BC704710B5141E2D
:1008300073F1000408DA401C41F1000192185B4199
:100840001A4301D120F0010010BD2DE9F04D924670
:100850009B4611B1B1FA81F202E0B0FA80F2203287
:100860009046FFF77BFF04460F4640EA0A0041EA44
:100870000B0153465A46084313D0114653EA010070
:1008800019D0C8F140025046FFF777FF05460E46E3
:10089000504659464246FFF761FF084305D0012004
:1008A00004E020463946BDE8F08D0020054346EAC5
:1008B000E0762C4337430A986305E40AA0EB08006E
:1008C0000022FD0A44EA47540A3002D500200146BE
:1008D000E9E7010510196941DDE908450019694199
:1008E000BDE8F04DA2E72DE9F04D00231A461B1A92
:1008F0008A4103DB00200146BDE8F08DC1F30A52B6
:10090000C1F3130141F480154FF0000BD10702D160
:1009100000186D41521E0027044640F2FF11384670
:1009200001EB620A3E468046024600204FF48011E9
:10093000FFF723FFC2197141BB1846EB0100B4EB6E
:10094000030C75EB000C04D3E41A65EB00051746A5
:100950000E46241908F101006D4180463428E3DD7C
:10096000F91946EB0600091BA84103D24FF0FF32EC
:10097000134601E0002213461BEB070046EB0A5129
:10098000BDE8F04DFFF752BF064C074D06E0E068AA
:1009900040F0010394E8070098471034AC42F6D3C6
:1009A000FFF708FC388500085885000830B58C181A
:1009B00010F8012B12F00F0301D110F8013B1209BE
:1009C00006D110F8012B03E010F8015B01F8015B80
:1009D0005B1EF9D101E001F8013B521EFBD1A1429F
:1009E000E6D3002030BD000010B5584C00202DED9E
:1009F000028BA080E08020816081A081E081608006
:100A000020809FED538AB0EE480AF0EE481ADFEDE1
:100A1000518AF2EE040AA4F52A70B0EE681A03F0C7
:100A200031FFB4F90600F0EE481A00EE100AB0EEFD
:100A3000681AF2EE060AB8EEC00AA4F5197003F0BF
:100A400021FFB4F90800F0EE481A00EE100AB0EEEB
:100A5000681AF2EE040AB8EEC00AA4F5087003F0B2
:100A600011FFB4F90A00F0EE481A00EE100AB0EED9
:100A7000681AF2EE060AB8EEC00AA4F5EE7003F0AA
:100A800001FFB4F90C00F0EE481A00EE100AB0EEC7
:100A9000481AF1EE080AB8EEC00AA4F5CC7003F0CB
:100AA000F1FEB4F90E00F0EE481A00EE100AB0EEB6
:100AB000481AF1EE080AB8EEC00AA4F5AA7003F0CD
:100AC000E1FEB4F90C00F0EE481A00EE100AB0EEA8
:100AD000481AF1EE080AB8EEC00AA4F5887003F0CF
:100AE000D1FEB4F90E00F0EE481A00EE100AB0EE96
:100AF000481AF1EE080AB8EEC00AA4F1CC0003F0DF
:100B0000C1FEB4F90200F0EE481A00EE100AB0EE91
:100B1000681AF2EE000AB8EEC00AA4F1880003F0E9
:100B2000B1FEB4F90000F0EE481A00EE100AB0EE83
:100B3000681ABDEC028BA4F14400BDE81040B8EE89
:100B4000C00AF2EE040A03F09DBE0000481800201F
:100B5000000000000AD7233C06F022FE142005F016
:100B60006DFFF9E705F077FF00F044FB022005F088
:100B700065FFF9E7000000002DE9F047FE4CDFF8C3
:100B8000FC9300272DED0A8BDFEDFD9AFD4EFE4D07
:100B9000DFF8F883B0EE089A9FEDFD8BE06E48B168
:100BA00001287DD0022800F07781032800F0BB8265
:100BB00000F0C8BAF84802F0D3FCC6ED009AF74836
:100BC000A77099ED00AB007899ED02BB02283FD1E8
:100BD00053EC182B51EC1B0BFFF774FD0DD1B0EE4D
:100BE00048CAF0EE68CA53EC1C2B51EC1A0BFFF705
:100BF00069FD08BF84ED2ACB2AD053EC1A2B51ECA7
:100C00001A0BFFF73BFC41EC1C0B53EC1B2B51EC7C
:100C10001B0BFFF733FC53EC1C2BFFF788FB41EC5D
:100C2000100B04F0B1FFB0EE481AF0EE681A84ED34
:100C30002A0B53EC112B51EC100BFFF75BFD07D285
:100C400094ED2A0B51EC100B81F00041C4E92A010C
:100C5000D5ED0D0A98ED001AF8EEE01A31EE490ACA
:100C6000F4EEC01AF1EE10FA08DCF8EEE00A71EECC
:100C7000091AF4EEE10AF1EE10FA37D2D5ED160AB0
:100C8000F8EEE01AF4EEC01AF1EE10FA0ADCF8EE13
:100C9000E00A71EE091AF4EEE10AF1EE10FA00E052
:100CA00049E023D2D5ED1F0AF8EEE01AF4EEC01A9F
:100CB000F1EE10FA08DCF8EEE00A71EE091AF4EE33
:100CC000E10AF1EE10FA11D2D5ED280AF8EEE01A99
:100CD000F4EEC01AF1EE10FA0ADCB8EEE00A71EE9A
:100CE000090AB4EEE00AF1EE10FA01D384ED2A8B82
:100CF0009FEDAB0B53EC102B94ED2A0B51EC100B2A
:100D0000FFF7BCFB41EC190B51EC1A0B81F00041D1
:100D100041EC110BB0EE483AF0EE683AB0EE492AD9
:100D2000F0EE692AB0EE4B0AF0EE6B0A9E4804F032
:100D300097F800F007BA99ED100B51EC100BFFF784
:100D4000F1FC2063E07801281CBFC4ED1C9AC4EDBF
:100D5000249A0ED199ED0C0B51EC100BFFF7E2FC2D
:100D6000C4F8900099ED0E0B51EC100BFFF7DAFC74
:100D700020678E4A316804209142C8BFE061A178A3
:100D8000032924BFE061A77080F0DC818849D4F892
:100D90009000884206DD9FED880B84ED2A0BC4EDA0
:100DA000239A65E08649884206D9C4ED239A9FEDCF
:100DB000860B84ED2A0B5BE0C4F88C0094ED1C0AD2
:100DC000834910EE100A88420ADB9FED830B7248BC
:100DD00084ED2A0BA77202F0D4FBC6ED009A2AE03C
:100DE000B5EEC00AF1EE10FA0AD16B4802F0B8FB7A
:100DF000A772A078002818BFC4ED239A1BD118E071
:100E000010EE100A814216DD634802F0BAFBC6ED0F
:100E1000009A7349206F8842C8BF9FED730B05DCB1
:100E200073498142C8BF9FED740B02DD84ED2A0B2C
:100E300001E084ED2A8B94ED1C0A714910EE100A32
:100E400008447049884213D2B5EEC00AF1EE10FA98
:100E50000ED0BDEEC00A504884ED210A02F091FB8D
:100E6000C6ED009A207B00280EBFA7720120A07259
:100E7000D4F88C00FFF713FCB0EE480AF0EE680AD5
:100E800041EC130B94ED2A2BB0EE401AF0EE601AF1
:100E9000454803F0E5FF55E15B485C4A5C4BB0F820
:100EA00010C03548BCF1F00F417C5A48806901D030
:100EB00029B343E011BB58498842B8BF9FED580B96
:100EC00015DB5949DFF864C10144614538BF9FED26
:100ED000580B0CD358498842C8BF9FED590B06DC0C
:100EE00059490144914238BF9FED590B02D284ED1C
:100EF0002A0B25E058490844834221D91EE057496E
:100F0000884238BF9FED560BF1D3574901449142B7
:100F100038BF9FED570BEAD35749814238BF9FED49
:100F2000580BE4D35849594A0144914238BF9FEDC8
:100F3000580BDCD358490844834201D384ED2A8BF3
:100F400095ED0D1AD8ED000AB0EE082AF8EEC11A98
:100F500030EEC90A70EE820AF4EEC01AF1EE10FA11
:100F600006DCB8EEC11AB4EEE01AF1EE10FA95E024
:100F700095E000000000000070010020400F0020FC
:100F80000000000044000020380D00202011002047
:100F90000000000000000000180800206801002088
:100FA000000000000000C03F60140020000020414D
:100FB0000000E040000000007B14AE47E17AC43F2F
:100FC0000000E0C0000000007B14AE47E17AC4BF1F
:100FD00000800944000000000000000000002440E0
:100FE0000000664300000000000000000000084010
:100FF000000048430000000000000000000000C0A6
:10100000FFFFB7BCFFFF1D00D80E0020FFFF21002F
:1010100099990C00E01900200000964200000000A1
:10102000333333333333E3BFFFFF69BDFFFF1700B3
:101030009A9999999999C9BF0000DC420000000073
:10104000333333333333E33FFFFF45BD000000004C
:101050009A9999999999C93FFFFF51BD00008CC297
:10106000000000000000E03FFFFF733D00000000B3
:101070009A9999999999A93F000020C3000000000E
:10108000000000000000E0BFFFFF453DFFFF6500DE
:101090009A9999999999A9BFFFFF513D2FD295ED42
:1010A000161AF8EEC11AF4EEC01AF1EE10FA06DCC8
:1010B000B8EEC11AB4EEE01AF1EE10FA1FD295EDB7
:1010C0001F1AF8EEC11AF4EEC01AF1EE10FA06DC9F
:1010D000B8EEC11AB4EEE01AF1EE10FA0FD295EDA7
:1010E000281AF8EEC11AF4EEC01AF1EE10FA08DC74
:1010F000B8EEC10AB4EEE00AF1EE10FA01D384EDC5
:101100002A8BB0EE480AF0EE680AB0EE403AF0EEF4
:10111000603A94ED2A2BB0EE401AF0EE601A2E4899
:1011200003F09EFE0EE0B0EE480AF0EE680A9FED76
:101130002C3B9FED2D2BB0EE401AF0EE601A2648A6
:1011400003F08EFE03F06AFC294C94ED260B51EC63
:10115000100BFFF785FA94ED240B06B251EC100B3F
:10116000FFF77EFA94ED220B07B251EC100BFFF75C
:1011700077FA94ED200B05B251EC100BFFF770FAE3
:1011800000B233463A46294600F0ECF894ED060BDF
:1011900051EC100BFFF764FA94ED040B07B251EC1D
:1011A000100BFFF75DFA94ED020B05B251EC100B3A
:1011B000FFF756FA94ED000B06B251EC100BFFF757
:1011C0004FFABDEC0A8B3B462A46314600B2BDE8D9
:1011D000F04700F0F9B800006014002000000000A3
:1011E0007B14AE47E17A843F9A9999999999D9BF2E
:1011F000001500202DE9F0414FF47A731A4642F2AF
:101200001071002000F022F94FF47A731A46194643
:10121000184600F0D9F82E4F304C02203B8A0026A9
:101220000125F02B2B492C4A636A0DD0012BBCBF42
:101230005B1C6362012B08BF60628869284908440F
:1012400090420DD865740CE0012BBCBF5B1C63623F
:10125000012B08BF60628869224908449042F1D39B
:101260006674206A3228BCBF401C206215D01E481C
:101270004078012804BF2573657300F0C9FA05F0B2
:10128000C5F8B7F90600F02815DD184800780128E0
:1012900011D097F8220040B10DE01549154803F030
:1012A000B8FB206A401C2062E1E71348007802285E
:1012B00008BF04F069FD11480078062808BFBDE8A2
:1012C000F081E673E671A5716571BDE8F0810000FB
:1012D000D80E0020E019002099990C007001002020
:1012E000FFFF513DFFFF51BD00000020A000002086
:1012F00078020020301000206801002069010020E1
:10130000FEE7000010B5044800F017FD0248006831
:1013100041680168406910BD880E002070B5094C15
:10132000094D6068401C6060012802D1286840684F
:10133000E060054800F001FD28684168216001680F
:10134000406970BD0C000020B00E00200348816889
:10135000491C8160024800F0F0BC00000C00002035
:10136000B00E002038B5DFF854C040F2FF14CCF8BE
:1013700000400024CCF80840CCF80C400824CCF8FD
:101380001040DFF83CC0040A8CF800408CF80100E3
:10139000080A8CF802008CF80310100A8CF804007C
:1013A0008CF80520180A8CF806008CF807306B467C
:1013B00062460249034800F087FA38BD700E0020EB
:1013C0008C000020880E002038B54FF0010CCDF8BD
:1013D00000C0DFF868C04FF40074CCF8004000246F
:1013E000CCF80840CCF80C400824CCF81040DFF8CA
:1013F00050C0040A8CF800408CF80100080A8CF8F0
:1014000002008CF80310100A8CF804008CF80520F8
:10141000180A8CF806008CF807300A4800F079FCAE
:101420006B46074A0549074800F04EFA002818BFE6
:1014300038BD0548016A491C016238BD700E0020A4
:101440008C000020880E00206000002038B5DFF8F6
:1014500064C04FF40074CCF800400024CCF808407D
:10146000CCF80C400824CCF81040DFF84CC0040A3B
:101470008CF800408CF80100080A8CF802008CF807
:101480000310100A8CF804008CF80520180A8CF858
:1014900006008CF807306B4662460649074800F0A4
:1014A00013FA002818BF38BD0548C169491CC1613D
:1014B00038BD0000580E002084000020B00E00202F
:1014C0006000002038B54FF0010CCDF800C0DFF807
:1014D00070C040F2FF14CCF800400024CCF8084063
:1014E000CCF80C400824CCF81040DFF858C0040AAF
:1014F0008CF800408CF80100080A8CF802008CF887
:101500000310100A8CF804008CF80520180A8CF8D7
:1015100006008CF807300C4800F0FBFB6B46094ACC
:101520000749094800F0D0F9074800F03AFB0028C5
:101530001CBF054800F035FB034800F0EAFB38BD4E
:10154000700E00208C000020B00E002010B507485F
:1015500003F078F9064803F075F9064803F072F9CC
:10156000BDE81040044803F06DB9000030110020C0
:1015700074110020B8110020FC11002000000000B0
:1015800010B52DED048B9FED740B754C84ED000BA5
:1015900084ED020B84ED040B84ED060B9FED718A44
:1015A000B0EE480AF0EE481ADFED6F8AB0EE681A26
:1015B0009FED6E9AA4F54C70F0EE490A03F062F9C3
:1015C00094ED021B51EC110BFFF7ACF800EE100A82
:1015D000F0EE481AB0EE681AF0EE490AA4F53B7036
:1015E00003F050F994ED041B51EC110BFFF79AF83E
:1015F00000EE100AF0EE481AB0EE681AF0EE490A52
:10160000A4F52A7003F03EF994ED061B51EC110B82
:10161000FFF788F800EE100AF0EE481AB0EE681AEC
:10162000F0EE490AA4F5197003F02CF994ED100BB3
:1016300051EC100BFFF776F800EE100AF0EE481AA6
:10164000B0EE481AF2EE080AA4F5087003F01AF991
:1016500094ED120B51EC100BFFF764F800EE100A3A
:10166000F0EE481AB0EE481AF2EE080AA4F5EE7051
:1016700003F008F994ED140B51EC100BFFF752F83E
:1016800000EE100AF0EE481AB0EE481AF2EE080A20
:10169000A4F5CC7003F0F6F894ED160B51EC100B9A
:1016A000FFF740F800EE100AF0EE481AB0EE481AC4
:1016B000F2EE080AA4F5AA7003F0E4F894ED200B0A
:1016C00051EC100BFFF72EF800EE100AF3EE0E1A95
:1016D000B6EE001ADFED260AA4F5887003F0D2F802
:1016E00094ED220B51EC100BFFF71CF800EE100AE2
:1016F000F3EE0E1AB6EE001ADFED1E0AA4F1CC00CE
:1017000003F0C0F894ED240B51EC100BFFF70AF82E
:1017100000EE100AF3EE0C1AB6EE001ADFED160A10
:10172000A4F1880003F0AEF894ED260B51EC100BF9
:10173000FEF7F8FFB0EE481ABDEC048B00EE100A7D
:10174000A4F14400BDE81040F3EE0C1ADFED0B0AE3
:1017500003F098B800000000000000000000000046
:101760006014002000000000CDCCCC3D9A99A94027
:101770000000DC420000E0420000E8420000E642D7
:1017800005F069F900F004F80A2005F057F9F9E7C7
:1017900010B5134C2078032808BF05F099FE1148B6
:1017A000B0F90610F0290BDB0F49097801291CBF9D
:1017B0002178042904D090F82200002808BF10BD29
:1017C0004FF000031A4619461846FFF7CBFD0023D9
:1017D000BDE810401A4619461846FFF7F5BD00004F
:1017E00068010020D80E0020A000002010B5044899
:1017F00000F02EFE03480169491C016110BD000084
:10180000C01000200C000020704772B6FEE70000F8
:1018100070B51E4D4FF48051284601F0FDF91C4C67
:101820004FF400512070284601F0F6F960704FF433
:101830008041284601F0F0F9A0704FF4004128469D
:1018400001F0EAF9E07094F800C012490022012387
:10185000BCF1010F0CBF0A700B7094F801C0BCF111
:10186000010F0CBF4A704B7094F802C0BCF1010F1D
:101870000CBF8A708B70DFF820C0012807BFCA70C8
:101880008CF80120CB708CF8013070BD000C024048
:10189000B0010020000000207001002090F82020FE
:1018A000012A18BF022A06D0416A41F48021416210
:1018B0004FF0010070470068426942EA010141614E
:1018C0004FF00000704700002DE9F00190F8206013
:1018D0000768BD68624CA7F1804CBCF5D04C1FD1A5
:1018E000D4F800C0BCF11E0F1ADABF68DFF87481AB
:1018F00048F82C705C4F3F6808F1780848F82C7065
:101900005A4F3F6808F1780848F82C70584F3F68E4
:1019100008F1780848F82C700CF1010CC4F800C0EC
:101920000768A7F1804CBCF5C84C1FD1D4F804C09F
:10193000BCF11E0F1ADABF68DFF8388148F82C7046
:101940004D4F3F6808F5167848F82C704B4F3F68AC
:1019500008F1780848F82C70494F3F6808F178087A
:1019600048F82C700CF1010CC4F804C0012E18BF0B
:10197000022E08D0416A41F480214162BDE8F001A5
:101980004FF00100704715F0E05F61D0C5F3016CC6
:10199000BCF1020F07D9416A41F400014162BDE880
:1019A000F00101207047012404FA0CF41C608C68DB
:1019B0004FF4C0739CB1CD6803EB0C162C434D68FB
:1019C00044EAC5040568AC514FF4C274066804EBE0
:1019D0000C140D693551097D01290ED108E00D88DF
:1019E000CC6803EB0C1644EA45540568AC51EBE7B0
:1019F00001680D5945F480750D511179D4795579E7
:101A000041EA04619479240444EA052421434FF413
:101A1000C675046805EB0C1561511178D47841EA5C
:101A2000046194785278240444EA022211434FF46A
:101A3000C474026804EB0C141151006803EB0C1120
:101A4000425842F001024250BDE8F00100207047C8
:101A5000416A41F400114162BDE8F0010120704784
:101A600048000020D00800208069004090690040B4
:101A7000A069004058080020806500409065004043
:101A8000A065004090F82020012A18BF022A06D045
:101A9000416A41F4802141624FF0010070473F48A4
:101AA000D0F8002242F00102C0F80022D0F8002253
:101AB00022F47C52C0F80022D0F800224B6A42EA9D
:101AC0000322C0F800220A7D4FF0010302F01F023A
:101AD00003FA02F2D0F81C3223EA0203C0F81C32E7
:101AE000CB69DBB9D0F80C3223EA0203C0F80C3220
:101AF000B1F80CC04B686CF31F43D1F814C000EB75
:101B0000CC0CCCF84032B1F808C00B686CF31F4322
:101B1000D1F814C000EBCC0CCCF84432CB69012BCB
:101B20001AD1D0F80C321343C0F80C32B1F800C00F
:101B30004B686CF31F43D1F814C000EBCC0CCCF80D
:101B40004032B1F808C0CB686CF31F43D1F814C021
:101B500000EBCC0CCCF844328B69002BD0F804326B
:101B60000CBF93431343C0F804320B69002BD0F829
:101B700014320CBF93431343C0F81432096A01298D
:101B800004D1D0F81C121143C0F81C12D0F8001276
:101B900021F00101C0F800120020704700640040ED
:101BA0007047406A704790F820300022012B18BF20
:101BB000022B01D010467047006800290CBFC06896
:101BC000006900F00302F5E710B490F820C0BCF102
:101BD000010F18BFBCF1020F07D0416A41F4802108
:101BE000416210BC4FF001007047D0F800C029B12D
:101BF000DCF810C01CF0030F7DD004E0DCF80CC052
:101C00001CF0030F7ED04FF4D87C04680CEB011C51
:101C100054F80C4014F004049460046854F80C4028
:101C200007BF640D1460E4085460046854F80CC0E5
:101C30000CF0020CC2F80CC04FF4DA7C04680CEB18
:101C4000011C54F80C4004F00F041461046854F8AB
:101C50000C40C4F307249461046854F80CC04FEAA4
:101C60001C4CC2F814C04FF4DC72D0F800C002EB78
:101C700001125CF802C083F800C0D0F800C05CF824
:101C800002C04FEA1C2C83F801C0D0F800C05CF8F9
:101C900002C04FEA1C4C83F802C0D0F800C05CF8C8
:101CA0000220120EDA704FF4DE72D0F800C002EBA0
:101CB00001125CF802C083F804C0D0F800C05CF8E0
:101CC00002C04FEA1C2C83F805C0D0F800C05CF8B5
:101CD00002C04FEA1C4C83F806C0D0F800C05CF884
:101CE0000220120EDA71006800290CBFC168016978
:101CF00041F0200100E005E00CBFC160016100205F
:101D000010BC7047416A41F40011416210BC0120CF
:101D10007047014690F8200001281CBF0228704738
:101D200009684A6812F0020F1CBF04207047096856
:101D300011F0020F18BF032070472DE9F05F054630
:101D4000006800244669D0F804908768D0F80CB089
:101D5000D0F810A0D0F8188016F0010F25D017F099
:101D6000010F07D00121816017F0020F7CD02846B7
:101D700000F001FB17F4807F09D029684FF48070D0
:101D8000886017F4007F70D0284600F0F6FA17F448
:101D9000803F0AD029684FF48030886017F4003FF4
:101DA00000F0B980284600F0EAFA16F0080F18BFD4
:101DB0001BF0100F04D02968102044F40074C86090
:101DC00016F0040F4FF0080718BF1BF0080F04D0DF
:101DD0002868C760284600F013FA16F0020F07D0F3
:101DE0002868C06810F0030F1CBF284600F00AFAEC
:101DF00016F0400F18BF1AF0100F04D029681020F9
:101E000044F48064086116F0200F18BF1AF0080F20
:101E100004D028680761284600F076FA16F0100F03
:101E200007D02868006910F0030F1CBF284600F097
:101E30006CFA16F4003F18BF19F0100F05D029688E
:101E400010204860284600F061FA16F4803F18BF61
:101E500019F0080F04D028684760284600F090FA6F
:101E600016F4004F78D001E035E044E019F0040F9B
:101E70006FD016F4807F1CBF18F0010F44F00104EE
:101E800016F4007F1CBF18F0020F44F0020416F491
:101E9000806F1CBF18F0040F44F0040416F4006FA8
:101EA00018BF18F0700F54D008F07000402808BF19
:101EB00044F0400448D03EDC102808BF44F0080439
:101EC00042D0202808BF44F010043DD0302808BF7D
:101ED00044F0200438E017F0040F18BF4FF40064FA
:101EE0007FF448AF17F0080F0ABF28464FF480541C
:101EF00000F040FA3EE717F4806F18BF44F4005436
:101F00007FF445AF17F4006F0ABF284644F48044BD
:101F100000F032FA3BE717F4802F18BF44F4004476
:101F20007FF443AF17F4002F0ABF284644F48034EF
:101F300000F024FA39E7502808BF44F0800403D0A9
:101F4000602808BF44F480742868816921F070011A
:101F50008161296804204860002C08BFBDE8F09F1B
:101F6000686A204368622846FFF71AFEBDE8F09FC2
:101F7000002804BF0120704770B5044690F8200087
:101F8000002804BF204600F089F82068016821F08D
:101F90000201016000F04AFE0546206840684FF0EB
:101FA000050610F0020F09D000F040FE401B0A2881
:101FB00017D82068406810F0020FF5D1206801683A
:101FC00041F00101016000F031FE054620684068E3
:101FD00010F0010F12D100BF00F028FE401B0A28AC
:101FE00007D9606A40F40030606284F82060012004
:101FF00070BD2068406810F0010FEDD0207E0128F0
:10200000206801680CBF41F0800121F0800101606F
:10201000607E0128206801680CBF41F0400121F07A
:1020200040010160A07E0128206801680CBF41F0DA
:10203000200121F020010160E07E01282068016874
:102040000CBF21F0100141F010010160207F012838
:10205000206801680CBF41F0080121F0080101600F
:10206000607F0128206801680CBF41F0040121F065
:1020700004010160D4E902010843D4E904121143C8
:1020800008436168491E08432168C86100206062F6
:10209000012084F82000002070BD00002DE9F047E9
:1020A0008146504886B00021026842F0806202609A
:1020B000026802F080620592026842F000720260DB
:1020C000006800F0007005904748006810F0010FAC
:1020D00003D046480268521C0260009101910291AF
:1020E00003910491D9F80000414C022501260327F1
:1020F000A0F180414FF009084FF4805AB1F5C84172
:1021000027D1206840F480702060206800F480703F
:102110000590206840F0010020602068694600F0CA
:102120000100059060158DE8E101324800F044FCA3
:1021300001AACDF800A082E8E00169462E4800F02F
:102140003BFC00220521142000F0F4FD142000F0D7
:10215000E2FDD9F80000A0F18041B1F5D0411CBFEB
:1021600006B0BDE8F087206840F0020020602068DB
:10217000CDF800A000F00200CDE9048003971F4CC9
:10218000CDE901566946204600F016FC4FF4005098
:102190008DE8E1016946204600F00EFC0022052191
:1021A0003F2000F0C7FD3F2000F0B5FD00220521D3
:1021B000402000F0BFFD402000F0ADFD00220521D1
:1021C000412000F0B7FD412000F0A5FD00220521CF
:1021D000422000F0AFFD422000F09DFD06B0BDE8BA
:1021E000F0870000403802400464004020000020D6
:1021F000303802400020024000000240000402404B
:102200007047000070B5054600683A4CA0F1804167
:102210008EB0B1F5C84127D10120606004AB06AA99
:102220003548FFF7D1FC0698A0F2012007281BD8FB
:10223000C0B2324A207000EBC00102EB810032F8DC
:1022400021300381BDF810305BBA22F82130BDF88F
:10225000121049BA4180BDF8141049BA81809DF826
:102260001610817104F044FA2868A0F18041B1F59C
:10227000D0411CBF0EB070BD214E30684068E06098
:1022800028684069606100213046FFF78CFC10B976
:10229000A068401CA06004AB06AA00211848FFF704
:1022A00093FC0698A0F2012007281BD8C0B215495C
:1022B000607000EBC00201EB820031F82230038134
:1022C000BDF810305BBA21F82230BDF8121049BABF
:1022D0004180BDF8141049BA81809DF816108171B3
:1022E00004F006FA30684068206128684069A061FF
:1022F0000EB070BD60000020880E0020380D002058
:10230000B00E0020180C0020704770477047000086
:1023100070B5044690F82000012804D0606A40F4AB
:10232000002060621CE0022084F820002068016820
:1023300021F00101016000F079FC05462068406849
:1023400010F0010F13D000BF00F070FC401B0A28F2
:1023500008D9606A40F400306062052084F82000EB
:10236000012070BD2068406810F0010FECD1002002
:10237000606270BD70477047704770477047704724
:1023800070472DE9F0410446876D00F04FFC05468B
:1023900094F835000026022806D08020606584F875
:1023A00034600120BDE8F0812068016821F0160149
:1023B00001602068416921F080014161206C0028A2
:1023C00004BFA06C002804D02068016821F0080137
:1023D00001602068016821F0010101602068006847
:1023E00010F0010F12D000F021FC401B052808D985
:1023F00020206065032084F8350084F83460BDE84F
:10240000F0812068006810F0010FECD194F85C00B6
:102410003F2101FA00F0B860012084F8350084F80B
:1024200034600020BDE8F08190F83510022903D017
:102430008021416501207047052180F83510006832
:10244000016821F00101016000207047406D704774
:102450002DE9F84304460027009773484FF41651BE
:10246000A56D0068B0FBF1F92E6894F85C000821B6
:1024700001FA00F0304211D02068026812F0040F17
:102480000CD0026822F00402026094F85C0001FAA9
:1024900000F0A860606D40F00100606594F85C0099
:1024A0004FF0010808FA00F0304209D0216849696C
:1024B00011F0800F04D0A860606D40F002006065EC
:1024C00094F85C1004208840304209D021680968E3
:1024D00011F0020F04D0A860606D40F00400606548
:1024E00094F85C1010208840304220D021680968A0
:1024F00011F0080F1BD0A8602068016811F4802F2C
:1025000009D0006810F4002F02D0A16C79B10CE062
:10251000216C51B90BE0016811F4807F03D101688F
:1025200021F008010160216C09B12046884794F828
:102530005C102020884030424AD02168096811F0A0
:10254000100F45D0A86094F8350005282068016870
:1025500009D011F4802F2BD0006810F4002F24D064
:10256000E16B21B332E021F016010160206841697E
:1025700021F080014161206C002804BFA06C00287C
:1025800004D02068016821F00801016094F85C0023
:102590004FF03F0101FA00F0A86084F8358084F81C
:1025A0003470216DD1BBBDE8F883616C71B90FE067
:1025B000016811F4807F07D1016821F010010160EA
:1025C00084F8358084F83470E16B09B1204688477F
:1025D000606D002808BFBDE8F883606D10F0010F42
:1025E00017D04FF0050084F835002068016821F00D
:1025F00001010160009800F101000090484504D8F5
:102600002068006810F0010FF4D184F8358084F858
:102610003470E16C002908BFBDE8F883204601B0A2
:10262000BDE8F043084700005C00002070B5044698
:1026300000F0FCFA0646002C04BF012070BD022009
:1026400084F83500002584F834502068016821F0B2
:10265000010101602068006810F0010F10D000BF78
:1026600000F0E4FA801B052805D9202060650320CE
:1026700084F8350070BD2068006810F0010FEFD1BC
:10268000216808683D4A1040D4E901231A43D4E97F
:10269000033C43EA0C031A4363691A43A3691A43D0
:1026A000E3691A43236A1A431043626A042A03D176
:1026B000D4E90B231A4310430860D4F800C0DCF8B7
:1026C0001400012320F00701606A40EA0102042897
:1026D00037D1A16AE06A0A4318B3A66956B1B6F5C4
:1026E000005F14D000291CBF0129022921D0032931
:1026F0001CD026E019B1012905D0022921D110F002
:10270000807F1ED015E0B0F1C07F1AD111E081B1F9
:10271000012907D002290CD0032908BFB0F1C07FDE
:1027200007D00EE010F0807F03D10AE010F0807F28
:1027300007D04FF04000606584F835304FF001005D
:1027400070BDCCF8142020680D4AC1B2A1F110016F
:10275000A2FB01210B4A4FEA11110329525CE265E9
:102760006FF3090088BF001D3F219140A065816083
:10277000656584F83530002070BD00003F8010F0A2
:10278000ABAAAAAA3084000870B490F83450846DC3
:102790004FF0000C012D02BF022070BC70470125D4
:1027A00080F8345090F835600025012E1CBF80F869
:1027B00034504FF0020C02D070BC604670470226C5
:1027C00080F83560456505682E6826F480262E6001
:1027D00005686B608368402B036803BF9A600268DA
:1027E000D16099601CBF0168CA6090F85C103F22FC
:1027F00002FA01F1A16001680A6842F016020A605B
:10280000016C21B101680A6842F008020A600068A0
:10281000016841F001010160CEE7000070B5044697
:1028200000F004FA0546B4F1FF3F02D004480078F6
:10283000044400F0FBF9401BA042FAD370BD000035
:10284000500000202DE9F04F0022DFF86091DFF802
:1028500060E14FF001080F2508FA02FC01EA0C03C1
:1028600063457DD122F0030404F1804606F59836D5
:10287000D6F808A89407270F05FA07F404EA0A0A0D
:10288000484508BF4FF0000B48D0A0F1804BBBF586
:10289000013B08BF4FF0010B40D0A0F1804BBBF5CE
:1028A000023B08BF4FF0020B38D0A0F1804BBBF5C4
:1028B000033B08BF4FF0030B30D0A0F1804BBBF5BA
:1028C000043B08BF4FF0040B28D0A0F1804BBBF5B0
:1028D000053B08BF4FF0050B20D0A0F1804BBBF5A6
:1028E000063B08BF4FF0060B18D0A0F1804BBBF59C
:1028F000073B08BF4FF0070B10D0A0F1804BBBF592
:10290000083B08BF4FF0080B08D0A0F1804BBBF587
:10291000093B0CBF4FF0090B4FF00A0B0BFA07F7FE
:10292000574520D1DEF800A02AEA030ACEF800A01D
:10293000204FD7F800A02AEA030AC7F800A03F1DDD
:10294000D7F800A02AEA030AC7F800A03F1DD7F86D
:1029500000A02AEA03033B60D6F80838A34300E04E
:102960001EE0C6F80838046856000323B3409C43B1
:102970000460D40800EB8404266A5707FF0E05FAAA
:1029800007F7BE432662C4689C43C460446824EAD7
:102990000C0CC0F804C0D0F808C02CEA0303836014
:1029A000521C102AFFF458AFBDE8F08F000002401F
:1029B000003C0140043C01402DE9F84F0022012772
:1029C000904D03264FF00F080B6807FA02FC03EA4C
:1029D0000C03634540F00F814C68012C18BF022C9A
:1029E00003D0112C18BF122C1AD1D0F808904FEA3E
:1029F000420406FA04FA29EA0A09D1F80CA00AFAF4
:102A000004F444EA09048460446824EA0C0C0C7958
:102A1000C4F3001404FA02F444EA0C0CC0F804C035
:102A2000D0F80C904FEA420CD1F808A006FA0CF44A
:102A300029EA04090AFA0CFA4AEA0909C0F80C90D2
:102A4000D1F80490B9F1020F18BFB9F1120F15D1E6
:102A50004FEAD20900EB890ADAF820B04FEA42794E
:102A60004FEAD96908FA09FE2BEA0E0BD1F810E0FB
:102A70000EFA09F949EA0B09CAF82090D0F800903B
:102A800029EA040491F8049009F0030909FA0CFCFE
:102A90004CEA040CC0F800C0D1F804C01CF0805F00
:102AA0007ED0D5F800C04CF4804CC5F800C0D5F8F5
:102AB00000C00CF4804CCDF800C022F0030C0CF1E7
:102AC000804C0CF5983CDCF808984FEA82744FEA89
:102AD000147408FA04FA29EA0A09A0F1804ABAF53E
:102AE000003A48D0A0F1804ABAF5013A08BF4FF049
:102AF000010A40D0A0F1804ABAF5023A08BF4FF06F
:102B0000020A38D0A0F1804ABAF5033A08BF4FF064
:102B1000030A30D0A0F1804ABAF5043A08BF4FF05A
:102B2000040A28D0A0F1804ABAF5053A08BF4FF050
:102B3000050A20D0A0F1804ABAF5063A08BF4FF046
:102B4000060A18D0A0F1804ABAF5073A08BF4FF03C
:102B5000070A10D0A0F1804ABAF5083A08BF4FF032
:102B6000080A08D0A0F1804ABAF5093A0CBF4FF024
:102B7000090A4FF00A0A0AFA04F444EA0904CCF8F4
:102B80000848214CD4F800C0D1F804902CEA030C7A
:102B900019F4803F18BF4CEA030CC4F800C000E0F1
:102BA00029E01A4CD4F800C0D1F804902CEA030CA8
:102BB00019F4003F18BF4CEA030CC4F800C0144CD1
:102BC000D4F800C0D1F804902CEA030C19F4801F4B
:102BD00018BF4CEA030CC4F800C00E4CD4F800C077
:102BE000D1F804902CEA030C19F4001F18BF4CEA2A
:102BF000030CC4F800C0521C102AFFF4E5AEBDE877
:102C0000F88F000044380240003C0140043C014081
:102C1000083C01400C3C01400069084018BF0120FD
:102C20007047002A08BF0904816170470148806825
:102C3000704700005000002002488168027811446B
:102C400081607047500000200B4810B5016841F4C6
:102C500000710160016841F480610160016841F424
:102C600080710160032000F097F8002000F006F862
:102C700000F024F8002010BD003C024070B50D4D5E
:102C800004464FF47A712878B1FBF0F00A490968DC
:102C9000B1FBF0F000F0C8FB48B9102C07D20022BD
:102CA0002146501E00F046F800206C6070BD0120E7
:102CB00070BD0000500000205C0000200A4881B078
:102CC000016841F480410160006800F48040009098
:102CD0000648016841F080510160006800F08050B2
:102CE000009001B070470000443802404038024074
:102CF0000028B8BF704700F01F01012202FA01F15D
:102D00004009800000F1E020C0F88011BFF34F8F30
:102D1000BFF36F8F70470028B8BF704700F01F01E6
:102D2000012202FA01F14009800000F1E020C0F820
:102D300000117047174B10B41B68C3F30223C3F193
:102D4000070CBCF1040F88BF4FF0040C1C1D072CAE
:102D500034BF0023DB1E012404FA0CFCACF1010C8F
:102D60000CEA0101994004FA03F35B1E1A40114377
:102D700000284FEA0111A1BF00F1E02080F8001403
:102D800010BC704700F00F0000F1E02080F8141D27
:102D900010BC70470CED00E0074900F007000A681E
:102DA0004FF6FF031A4042EA002040F0FD7040F069
:102DB00080600860704700000CED00E0F8B51A482C
:102DC000016841F0805101600068184F00F08050A8
:102DD000012600903E64FFF729FF154C0546606808
:102DE00010F4803F0AD100BFFFF720FF401BB0F571
:102DF0007A7F11D8606810F4803FF5D07E64FFF7C9
:102E000015FF0546606810F4003F0BD1FFF70EFF79
:102E1000401BB0F57A7F01D90320F8BD606810F43B
:102E2000003FF3D00020F8BD4038024000000E42C1
:102E300000700040002804BF012070472DE9F047D2
:102E40004D4E04460F46306801F0FF0800F00F00B9
:102E5000B84206D286F80080306800F00F00B84211
:102E600061D12068454D10F0020F14D010F0040F0E
:102E700003D0286840F4E0502860207810F0080F54
:102E800003D0286840F4604028602868A16820F0DA
:102E9000F00008432860207810F0010F37D06068F8
:102EA0003749012823D0022818BF0328096823D0F6
:102EB00011F0020F37D0296821F0030141EA000028
:102EC0002860FFF7B3FE81462868616800F00C00B7
:102ED000B0EB810F18BF41F2883A18D0FFF7A6FE79
:102EE000A0EB090050450BD90320BDE8F087096825
:102EF00011F4003FDFD116E011F0007FDBD112E0CA
:102F00002868616800F00C00B0EB810FE6D13068F2
:102F100000F00F00B84209D986F80080306800F050
:102F20000F00B84202D00120BDE8F087207810F0F1
:102F3000040F05D02868E16820F4E05008432860B9
:102F4000207810F0080F06D02868216920F460402E
:102F500040EAC100286000F03BF82968094AC1F343
:102F60000311515CC8400849086008480068FFF731
:102F700085FE0020BDE8F087003C02400838024092
:102F800000380240388400085C0000205400002013
:102F90000448054900680968044AC1F38221515C6C
:102FA000C84070475C000020083802404884000890
:102FB0000448054900680968044AC1F34231515C7C
:102FC000C84070475C000020083802404884000870
:102FD0001848006810F00C02174808BF70471749DE
:102FE000042A04BF08467047082A18BF704710B566
:102FF000134C2268236802F03F0213F4800F08D0BC
:1030000020680023C0F38810A0FB0101FDF74CF9F4
:1030100007E021680023C1F38811A1FB0001FDF73F
:1030200043F92168C1F30141491C4900B0FBF1F0AB
:1030300010BD0000083802400024F40040787D01F3
:1030400004380240002804BF012070472DE9F84FE2
:1030500004460078DFF8AC8310F0010FA8F10405F6
:1030600058D008F10400016801F00C01042909D0CE
:10307000006800F00C0008280DD1D8F8000010F40A
:10308000800F08D0286810F4003F43D06068002803
:1030900000F0B1813EE06068B0F5803F19D0B0F536
:1030A000A02F28680CBF40F4802020F480302860D6
:1030B00028680CBF40F4803020F4802028606068CD
:1030C000B8B1FFF7B3FD0646286810F4003F05D0FD
:1030D00020E0286840F480302860F0E7FFF7A6FD84
:1030E000801B642800F22781286810F4003FF5D087
:1030F00010E0FFF79BFD0646286810F4003F09D05A
:10310000FFF794FD801B642800F21581286810F4F5
:10311000003FF5D12078BC4F10F0020F47D0BB48DC
:10312000016811F00C0F16D0006800F00C000828A0
:1031300004BFD8F8000010F4800F0CD0E06820B372
:103140004FF001003860FFF771FD0646286810F067
:10315000020F09D011E0286810F0020F1CBFE068D0
:1031600001280AD000F047B9FFF760FD801B022854
:103170007ED8286810F0020FF6D02868216920F068
:10318000F80040EAC100286011E000203860FFF735
:103190004DFD0646286810F0020F08D0FFF746FDE7
:1031A000801B022864D8286810F0020FF6D120781E
:1031B00010F0080F2AD09648964E616999B1012106
:1031C0000160FFF733FD8146306810F0020F1DD11A
:1031D000FFF72CFDA0EB0900022849D8306810F059
:1031E000020FF5D012E000210160FFF71FFD8146BC
:1031F000306810F0020F09D0FFF718FDA0EB0900AE
:10320000022835D8306810F0020FF5D1207810F080
:10321000040F77D080484FF0000B006810F0805FFB
:103220000AD17D48016841F08051016000684FF08B
:10323000010B00F080500090784E306810F4807FD1
:1032400014D1306840F480703060FFF7EFFC8146A5
:10325000306810F4807F09D1FFF7E8FCA0EB09008B
:10326000022868D8306810F4807FF5D06C4E00E0FA
:1032700061E0A06801281BD0052830680CBF40F031
:10328000040020F00100306030680CBF40F0010005
:1032900020F00400C6F80000A06841F2883AB8B1F6
:1032A000FFF7C4FC8146306810F0020F05D021E022
:1032B000306840F001003060EEE7FFF7B7FCA0EBAC
:1032C0000900504537D8306810F0020FF5D011E0F2
:1032D000FFF7ACFC8146306810F0020F0AD000BF47
:1032E000FFF7A4FCA0EB0900504524D8306810F08B
:1032F000020FF5D1BBF1000F04D04748016821F05F
:1033000080510160A069E8B34049096801F00C01EF
:10331000082950D002284FF0000038660ED0FFF781
:1033200085FC0446286810F0007F67D0FFF77EFC1C
:10333000001B02283AD90320BDE8F88FFFF776FC7E
:103340000646286810F0007F09D000BFFFF76EFC2A
:10335000801B0228EFD8286810F0007FF6D1D4E94E
:1033600007010843A16A2F4A490802EB0141626A3A
:1033700041EA8211084394F82C1040EA0160C8F831
:10338000000000E03AE001203866FFF74FFC0446F9
:10339000286810F0007F31D1FFF748FC001B02289D
:1033A000C9D8286810F0007FF6D027E0286810F010
:1033B000007FBBD122E0012808BFBDE8F88FD8F814
:1033C0000000E26900F48001914214D1226A00F009
:1033D0003F0191420FD147F6C071626A01409142AC
:1033E00009D1A26A00F44031914204D1E16A00F0AF
:1033F0007060884202D00120BDE8F88F0020BDE84F
:10340000F88F0000043802400000474208380240AC
:10341000800E47427438024040380240007000403D
:10342000703802400000FFFF411EB1F1807F24BFD1
:10343000012070474FF0E0204161054AF02182F8F9
:10344000141D0021816107210161002070470000E7
:103450000FE000E07047704790F83C20012A04BF5D
:103460000220704730B4012380F83C30022280F8FB
:103470003D2002685468D2F808C00D6824F070043A
:103480002C4354600268A2F18044B4F5803418BF24
:10349000B2F1804F1DD0A2F18044B4F580641CBF0E
:1034A000A2F18044B4F5006413D0A2F18044B4F5D5
:1034B00040641CBFA2F18044B4F5823409D0A2F16B
:1034C0008044B4F5A0341CBFA2F18044B4F5C054CC
:1034D00005D149682CF0800C41EA0C01916080F81C
:1034E0003D30002180F83C1030BC08467047002871
:1034F00004BF0120704710B5044690F83D0028B97C
:10350000002084F83C00204600F00CF8022084F8EB
:103510003D00211D206801F03BFC012084F83D00A6
:10352000002010BD08B50068A0F18041B1F5006130
:1035300018BF08BD0948016841F004010160006836
:10354000032200F00400009001211E20FFF7F2FB8F
:10355000BDE808401E20FFF7DEBB000040380240F7
:103560000168CA6842F00102CA600068816801F01F
:103570000701062903D0016841F001010160002024
:1035800070470168CA6822F00102CA600068016AD7
:1035900041F21112114207D1016A9210114203D176
:1035A000016821F00101016000207047704770B58B
:1035B0000446006801694FF0000511F0020F1CBFBE
:1035C000C16811F0020F13D06FF0020101610120F8
:1035D00020772068806910F0030F204602D0FFF7A3
:1035E000E5FF04E000F099F8204600F097F8257711
:1035F0002068016911F0040F1CBFC16811F0040FAD
:1036000013D06FF0040101610220207720688069E7
:1036100010F4407F204602D0FFF7C8FF04E000F01E
:103620007CF8204600F07AF825772068016911F0CF
:10363000080F1CBFC16811F0080F13D06FF008010C
:103640000161042020772068C06910F0030F204634
:1036500002D0FFF7ABFF04E000F05FF8204600F077
:103660005DF825772068016911F0100F1CBFC16853
:1036700011F0100F13D06FF01001016108202077B6
:103680002068C06910F4407F204602D0FFF78EFF0B
:1036900004E000F042F8204600F040F8257720686A
:1036A000016911F0010F1CBFC16811F0010F05D0B5
:1036B0006FF001010161204600F032F820680169D5
:1036C00011F0800F1CBFC16811F0800F05D06FF0A2
:1036D000800101612046FFF7BDFE2068016911F0FD
:1036E000400F1CBFC16811F0400F05D06FF04001C2
:1036F0000161204600F034F82068016911F0200FC4
:103700001ABFC16811F0200F70BD6FF02001016178
:103710002046BDE87040FFF79EBE7047704700002E
:1037200010B50068A0F18041B1F5006118BF10BD6F
:10373000074C2068FCF7B3FF9FED071B53EC112BE0
:10374000FCF7F5FDFCF7EEFF206010BD0000000067
:1037500044000020000000009A9999999999B93F76
:103760007047704770B50446206800F10C0151E8BD
:10377000000F20F4907041E80002002AF4D1206884
:1037800000F1140151E8000F20F0010041E80002AF
:10379000002AF4D1206B01280AD1206800F10C0125
:1037A00051E8000F20F0100041E80002002AF4D197
:1037B000206840694FF0000510F0400F16D02068D7
:1037C00000F1140151E8000F20F0400041E8000230
:1037D000002AF4D1E06B48B10565E06BFEF7D1FD3E
:1037E00020B1E06BFEF732FE202806D0E5852020D0
:1037F00084F842002563002070BD1020606403201F
:1038000070BD70B504460068406994F84110C0F37B
:10381000C010202521291CD1D8B12068143050E8CF
:10382000001F21F0800140E80012002AF5D1A06BB2
:10383000002818BFFEF7A5FD206800F10C0151E833
:10384000000F20F0C00041E80002002AF4D184F803
:1038500041502068406994F84210C0F3801022293A
:1038600037D1B0B3206800F1140151E8000F20F007
:10387000400041E80002002AF4D1E06B002818BFA4
:10388000FEF77FFD206800F10C0151E8000F20F4E5
:10389000907041E80002002AF4D12068143050E80A
:1038A000001F21F0010140E80012002AF5D1206B31
:1038B00001280AD1206800F10C0151E8000F20F026
:1038C000100041E80002002AF4D184F842500020A0
:1038D0002063002070BD002804BF0120704710B590
:1038E0000446242084F841002068C16821F4005176
:1038F000C160204600F0C2F90020606484F84100F5
:1039000084F842002063606384F8400010BD704773
:10391000F8B5016804460868CA684B6910F00F0FD3
:103920004FF020064FF0000560D003F0010C02F4C8
:1039300090775CEA07077CD010F0010F18BF12F4F3
:10394000807F03D0616C41F00101616410F0040FCD
:1039500018BF13F0010F03D0616C41F002016164E4
:1039600010F0020F18BF13F0010F03D0616C41F08B
:103970000401616410F0080F1CBF02F0200151EA3D
:103980000C0103D0616C41F008016164616C002995
:1039900008BFF8BD10F0200F1EBF12F0200F204608
:1039A00001F068FC20684069616CC0F3801011F080
:1039B000080F08BF002857D0206800F10C0151E81B
:1039C000000F20F4907041E80002002AF4D1206832
:1039D00000F1140151E8000F20F0010041E800025D
:1039E000002AF4D1206B012815D10AE010F0200F35
:1039F00018BF12F0200F3CD02046BDE8F84001F07F
:103A000039BC20680C3050E8001F21F0100140E85C
:103A10000012002AF5D184F84260256320684069CD
:103A200010F0400F1CD0206800F1140151E8000F85
:103A300000E01EE020F0400041E80002002AF2D140
:103A4000E06B68B173490165E06BFEF7EDFC00289F
:103A500008BFF8BDE06B016D01B0BDE8F04008475C
:103A60002046FFF754FFF8BD2046FFF750FF65647E
:103A7000F8BD236B012B7DD110F0100F18BF12F091
:103A8000100F77D008684868009048694FF0020727
:103A900010F0400F46D0E16B086840680004000C4D
:103AA0001CBFA28D824298BFF8BDE085C869B0F501
:103AB000807F2ED020680C3050E8001F21F48071E8
:103AC00040E80012002AF5D12068143050E8001FA9
:103AD00021F0010140E80012002AF5D1206800F130
:103AE000140151E8000F20F0400041E80002002AD4
:103AF000F4D184F84260256320680C3050E8001F40
:103B000021F0100140E80012002AF5D1E06BFEF729
:103B100038FC6763A08DE18D401A81B22046FFF723
:103B200020FEF8BDA08DE18D401A81B2E08D002805
:103B300014BF0029F8BD206800F10C0252E8000F04
:103B400020F4907042E80003002BF4D1206800F1CB
:103B5000140050E8002F22F0010240E80023002B5F
:103B6000F4D184F842602563206800F10C0252E829
:103B7000000F00E00AE020F0100042E80003002BF4
:103B8000F2D167632046FFF7ECFDF8BD10F0800F1F
:103B900018BF12F0800F2DD094F84100212818BFD3
:103BA000F8BDA068B0F5805F04BF20690028206AD6
:103BB00018D000F101012162216800784860E08C92
:103BC000A0F101000004000CE08418BFF8BD2068DB
:103BD000C16821F08001C1602068C16841F04001E6
:103BE000C160F8BD0088C0F308004860206A801CEE
:103BF0002062E4E710F0400F14BF12F0400FF8BD50
:103C00002046CA6822F04002CA6084F8416000F091
:103C1000E6FAF8BD01510008002804BF01207047F2
:103C200070B5044690F84100002520B984F8405052
:103C3000204600F03FF8242084F841002068C16845
:103C400021F40051C160204601F07CFB206801692D
:103C500021F4904101612068416921F02A0141610C
:103C60002068C16841F40051C1606564202084F877
:103C7000410084F842006563002070BD10B5006803
:103C8000A0F18041B1F5883118BF10BD0748016827
:103C900021F0100101604FF4C0610548FEF7D2FD2C
:103CA000BDE810402520FFF723B80000443802404B
:103CB000000002402DE9F04786B0002500950195EF
:103CC000029503950495D0F800C08046674868497E
:103CD000022403260727674BACF18042B2F58832F5
:103CE00039D0021FACF1804A4FF00809BAF5884A72
:103CF00052D0ACF18043B3F590437BD0ACF180421D
:103D0000B2F58A321CBF06B0BDE8F087026842F007
:103D100020020260006800F020000590086840F072
:103D2000400008600868694600F0400005904FF4C4
:103D30008440CDE90004CDE903694F48FEF73CFE1D
:103D4000012211464720FEF7F5FF4720FEF7E3FF6B
:103D500006B0BDE8F087026842F010020260006819
:103D600000F010000590086840F001000860086845
:103D7000694600F0010005904FF4C060CDE90004F1
:103D80001846CDE90367FEF717FE00220121252022
:103D9000FEF7D0FF2520D9E7106840F4003010600E
:103DA000106800F400300590086840F001000860D9
:103DB0000868694600F0010005900420CDE9000480
:103DC0000120CDE90206984604971846FEF7F4FD57
:103DD00040460DF10408CDF8009088E8F0006946EF
:103DE000FEF7EAFD002202212620FEF7A3FF26208F
:103DF000ACE7FFE7106840F480201060106800F422
:103E000080200590086840F0020008600868694654
:103E100000F0020005904FF44060CDE9000417481F
:103E2000CDE90367FEF7C8FD164C154820604FF03A
:103E30000060C4E901054014C4E9035065618001D4
:103E4000A561C4E9075020466562FEF7EFFB002834
:103E500018BFFDF7DAFCC8F83C40002201212720FA
:103E6000C4F83880FEF766FF27206FE74438024029
:103E700030380240000002400018024000040240B6
:103E800028600240C010002090F84230202B1CBF58
:103E900002207047002912BF002A012070474FF00E
:103EA0000003036301F0C6BA90F84230202B1CBF18
:103EB00002207047002912BF002A012070474FF0EE
:103EC0000003036381628285C28543644FF022014F
:103ED00080F84210016921B10168CA6842F4807219
:103EE000CA6001684A6942F001024A610068C1681B
:103EF00041F02001C1601846704700002DE9F041F3
:103F0000044600680025574E0127A0F18041B1F515
:103F1000883130D11920B060534801780F2904BF8F
:103F2000007E002811D0706900F101007061204608
:103F3000FFF718FC19214C48FCF7EEF92046FFF773
:103F4000CAFC2046FFF768FE10E03069401C306173
:103F5000454803F087FB454900225FF00C030D70D4
:103F600001F8012C01F8022D5B1EF9D119223E49FE
:103F70002046FFF799FF2068DFF8F480A0F1804128
:103F8000B1F5884119D1394888F800700078A52822
:103F900032D0706A1122401C7062364800F13F0135
:103FA000C0F83F50C0F84350C0F84750C0F84B50DD
:103FB00080F84F502046FFF777FF2068A0F180413E
:103FC000B1F58A3118BFBDE8F08188F800702A4841
:103FD0000178A52923D02046FFF7C4FBF0691321FF
:103FE000401CF0612448FCF797F92046FFF773FC6A
:103FF0002046FFF711FE2DE0306A0222401C30629D
:104000000021204602F062FDFEF710FE1B4911223E
:104010000860777015492046FFF746FFCDE7B16984
:104020000222491CB161417CF160807C70600121F9
:10403000204602F099FDFEF7F9FD114900220923FF
:1040400008601049B7700D7001F8012C01F8022DBD
:104050005B1EF9D12046BDE8F04113220649FFF767
:1040600023BF0000A0000020FE0E0020170F00203C
:10407000CC000020D80E0020280F0020D000002007
:10408000C80000203B0F0020704700002DE9F84FCA
:10409000044690F841001D461646884620281CBF5D
:1040A0000220BDE8F88FB8F1000F12BF002E0120EA
:1040B000BDE8F88F4FF0000BC4F844B04FF021007A
:1040C00084F84100FEF7B2FDA6848146E684A0682C
:1040D000B0F5805F07BF2069002846464FF0000812
:1040E00008BF0026E08C4FF0200A00285ED0206830
:1040F0008027006837EA00004DD000BFB5F1FF3FD0
:1041000044D0FEF793FDA0EB0900A8425BD8002D38
:1041100059D02068C16811F0040F18BF802F35D026
:10412000402F1CBF016811F0080F2FD001684068B4
:104130000090206800F10C0151E8000F20F490700D
:1041400041E80002002AF4D1206800F1140050E890
:10415000001F21F0010140E80012002AF4D1206B79
:1041600001280AD1206800F10C0151E8000F20F06D
:10417000100041E80002002AF4D184F842A0C4F8FB
:1041800030B00820606484F840B01CE0206800680B
:1041900037EA0000B2D1DEB1216816F8010B4860A1
:1041A000E08C401EE084E08C0028A0D14B46002229
:1041B00040212046009501F08DF9002804BF84F8C5
:1041C00041A0BDE8F88F84F841A00320BDE8F88F36
:1041D00038F8020B2168C0F308004860E0E7704738
:1041E00070B52DED068B9FED448B454C9FED46AB96
:1041F000522842D053281CBFBDEC068B70BD444DE5
:10420000B5F90000FCF71BFA53EC182BFCF736F954
:104210009FED419B53EC192BFCF730F9FCF782FA28
:104220002061B5F90200FCF70AFA53EC182BFCF7F1
:1042300025F953EC192BFCF721F9FCF773FA6061AF
:10424000B5F90400FCF7FBF953EC182BFCF716F951
:1042500053EC192BFCF712F9FCF764FAA061B5F9DD
:104260000600FCF7ECF953EC1A2BFCF779F9FCF794
:1042700059FAE061BDEC068B70BD294DB5F900001F
:10428000FCF7DDF953EC182BFCF7F8F89FED269BB3
:1042900053EC192BFCF7F2F8FCF744FA2060B5F95F
:1042A0000200FCF7CCF953EC182BFCF7E7F853ECC1
:1042B000192BFCF7E3F8FCF735FA6060B5F9040058
:1042C000FCF7BDF953EC182BFCF7D8F853EC192B7D
:1042D000FCF7D4F8FCF726FAA060B5F90600FCF765
:1042E000AEF953EC1A2BFCF73BF9FCF71BFAE06034
:1042F000BDEC068B70BD0000000000000000003F18
:10430000E0190020000000000000000000005940FB
:1043100070020020000000000000000000806640E5
:1043200068020020000000000000000000409F40E4
:1043300010B5104800F086FA0F4800F083FA0F48D5
:1043400000F080FA0E4800F07DFA0E4800F07AFA8C
:104350000D4800F077FA0D4800F074FA0C4800F0B0
:1043600071FA0C4800F06EFABDE810400A4800F0FF
:1043700069BA0000A0150020E415002028160020CE
:104380006C160020B0160020F4160020381700200C
:104390007C170020C017002004180020FEE7000052
:1043A000F0B5204C8BB01E48206009200025C4E9E0
:1043B00001054FF40030C4E9035065612576657648
:1043C000A576E576257765772046FDF7D1FD0028AF
:1043D00018BFFDF71AFA20684069134F10F0020F5A
:1043E0004FF0010618BFBE600595CDE9065603954E
:1043F00000950195029569460A4808960495FDF7CF
:1044000041FB02210748FDF749FA0648FDF780FF06
:104410002068406910F0020F18BF3E600BB0F0BD7D
:1044200000640040880E00209400002030B51F4C2E
:104430008BB01D48206009200025C4E901054FF418
:104440000030C4E90350656125766576A576E5768A
:10445000257765772046FDF78BFD154900281CBFA1
:10446000032048602068406910F0020F4FF00100FF
:1044700018BF88600E21CDE906500095CDE90451A2
:10448000039508900195029569460848FDF7FAFAE8
:1044900002210648FDF702FA0448FDF739FF2068BB
:1044A00040690BB030BD000000680040B00E002035
:1044B00094000020094808B5016841F4001101602A
:1044C0000068002200F40010009001210C20FEF78B
:1044D00031FCBDE808400C20FEF71DBC303802401E
:1044E000F0B5294DABB095E85F108DE85F10002165
:1044F000684602F0B7FA254C1C350DF11C0EA06081
:1045000095E8CF108EE8CF10002107A81C3D02F0DF
:10451000A9FA3835E06095E8CF100DF1380E383D36
:104520008EE8CF1000210EA802F09CFA54352061CD
:1045300095E8CF100DF1540E543D8EE8CF100021B8
:1045400015A802F08FFA7035606195E8CF100DF173
:10455000700E703D8EE8CF1000211CA802F082FA88
:104560008C35A06195E86F1023AF87E86F100021AC
:1045700023A802F077FAE061E06800281CBF012060
:1045800020602BB0F0BD00008883000824000020CC
:104590002DE9F04186B0414800260496016841F4B7
:1045A00080710160016801F480710591016841F03A
:1045B00080010160016801F080010591016841F00E
:1045C00040010160016801F040010591016841F07E
:1045D00020010160016801F020010591016841F0AE
:1045E00001010160016801F001010591016841F0DC
:1045F00008010160016801F008010591016841F0BE
:10460000040101600068012400F004000094244FBC
:1046100002250590694601943846CDE90245FEF72A
:10462000CBF9012211463846FEF7FBFA0420CDE90A
:10463000000469463846CDE90245FEF7BDF9194F39
:10464000002220213846FEF7ECFADFF85C80009467
:10465000694640460194CDE90245FEF7ADF90022D6
:1046600001214046FEF7DDFAE003CDE9000469468A
:104670003846CDE90245FEF79FF90022E1033846AE
:10468000FEF7CFFA4FF47040CDE900066946029478
:104690000648FEF791F906B0BDE8F08130380240D7
:1046A000001802400014024000080240000C0240C2
:1046B00010B582B00024104800940E4901940160A6
:1046C00042F22831C0E901144FF47A718461C1606B
:1046D000FEF70DFF002818BFFDF797F80094694614
:1046E00005480194FEF7B8FE002818BFFDF78DF8C5
:1046F00002B010BD0008004018080020104810B596
:104700000E4901600F4941604FF4805181604900BA
:10471000C160C91001610C21416100218161C16149
:10472000FFF77AFA002818BFFDF76FF81922BDE8E5
:10473000104005490248FFF7B7BB000000100140D8
:10474000A00F0020A0860100FE0E00200E4810B52C
:104750000C4901604FF4E1314160002181600C227D
:10476000C160C0E904128161FFF756FA002818BF42
:10477000FDF74BF81122BDE8104004490248FFF74D
:1047800093BB000000440040E80F0020170F0020FA
:1047900010B5114C0F480C2120604FF4E1306060DF
:1047A0000020A060E060C4E90401A061E06120464F
:1047B000FFF732FA002818BFFDF727F82068C16814
:1047C00041F01001C160BDE81040162203490248C3
:1047D000FFF75ABB0048004030100020001A0020AC
:1047E0000E4810B50C4901604FF4E13141600021E1
:1047F00081600C22C160C0E904128161C161FFF7D0
:104800000BFA002818BFFDF700F81322BDE810408E
:1048100003490248FFF748BB00140140781000200C
:10482000280F0020FEE70000044C6068401C606018
:1048300002F066F8022002F001F9F6E724000020F9
:10484000FEE700009FED0E0A80ED010A80ED020AEE
:1048500080ED050A80ED060A80ED070A80ED0C0A5E
:1048600080ED0D0A80ED0E0A80ED0F0A80ED0B0A37
:1048700080ED080A80ED090A80ED0A0A7047000001
:104880000000000080ED010AC0ED080A80ED091A61
:10489000C0ED0A1A7047000010B504462DED048BD8
:1048A000B0EE418AF0EE618AB0EE409AF0EE609A86
:1048B00018EE100AFBF7F3FE53EC192BFBF7DBFDA8
:1048C000FBF730FF2A49086051EC190BFBF72AFF70
:1048D000606084ED028A18EE100AFBF7E0FE53ECEC
:1048E000192BFBF7C8FDFBF71DFF00EE900AF0EE59
:1048F000002AC4ED050A94ED061AB0EE602AD4ED44
:10490000081A30EEC10A01EE622AD4ED072A20EE21
:10491000210AD4ED091A32EE222A61EEA01AD4ED52
:104920000A2A22EE222A30EE210AD4ED031A30EEB2
:10493000020A31EE800AF1EE681A84ED030AB4EE41
:10494000E10AF1EE10FA98BFB0EE610A06D9B4EEB2
:10495000E80AF1EE10FAA8BFB0EE680A84ED030A87
:1049600084ED071AC4ED060ABDEC048B10BD0000EF
:10497000D400002030EE602A80ED010AC0ED020A6A
:1049800080ED0C2A90ED0F0A70EE020AC0ED0F0ABE
:10499000F4EEC10AF1EE10FAA8BFF0EE410AC0ED44
:1049A0000F0AB1EE410AF4EEC00AF1EE10FA98BF18
:1049B000F0EE400AC0ED0F0A90ED080A90ED091ADA
:1049C00020EE020A01EE200AD0ED0D0A90ED0A1A3F
:1049D00072EE600A01EE200A80ED030AB4EEE10AED
:1049E000F1EE10FAA8BFB0EE610A80ED030AF1EE15
:1049F000610AB4EEE00AF1EE10FA98BFB0EE600A78
:104A000080ED030A80ED0D2A7047322002F016F87F
:104A1000FBE7FF230522FFF739BB000070B5904D7F
:104A2000904E2DED028BB5F9020000EE100AB8EEA3
:104A3000C01A96ED000B9FED8C8AA6F54C70F0EE37
:104A4000481AFFF729FF10EE100AFBF728FE06F1BF
:104A5000A004F0EE481AC4E90001B5F9260000EE02
:104A6000100AA4F56370B8EEC01A96ED020BFFF7BA
:104A700013FF10EE100AFBF712FEC4E90201B5F9AC
:104A80004A00F0EE481A00EE100AA4F55270B8EE93
:104A9000C01A96ED040BFFF7FFFE10EE100AFBF7AD
:104AA000FEFDC4E90401B5F96E00F0EE481A00EE0F
:104AB000100AA4F54170B8EEC01A96ED060BFFF788
:104AC000EBFE10EE100AFBF7EAFDC4E9060195EDD6
:104AD000280AA4F57876F8EEC00A96ED000A9FED54
:104AE000638AF0EE481ADFED628AA4F53070B0EE0A
:104AF000681AFFF73FFF10EE100AFBF7D0FDC4E97C
:104B0000100195ED310AF0EE481AB0EE681AF8EE91
:104B1000C00A96ED010AA4F51F70FFF72BFF10EEF7
:104B2000100AFBF7BCFDC4E9120195ED3A0AF0EE5C
:104B3000481AB0EE681AF8EEC00A96ED020AA4F51B
:104B40000E70FFF717FF10EE100AFBF7A8FDC4E97F
:104B5000140195ED430AF0EE481AB0EE681AF8EE2B
:104B6000C00A96ED030AA4F5FA70FFF703FF10EEF2
:104B7000100AFBF794FDC4E9160194ED100B51ECFB
:104B8000100BFBF7CFFD00EE100AB5F99200F0EE26
:104B9000481A00EE900AB0EE681AA4F5D870F8EE44
:104BA000E00AFFF7E7FE10EE100AFBF778FDC4E914
:104BB000200194ED120B51EC100BFBF7B3FD00EE4E
:104BC000100AB5F9B600F0EE481A00EE900AB0EE01
:104BD000681AA4F5B670F8EEE00AFFF7CBFE10EE07
:104BE000100AFBF75CFDC4E9220194ED140B51ECB3
:104BF000100BFBF797FD00EE100AB5F9DA00F0EEA6
:104C0000481A00EE900AB0EE681AA4F59470F8EE17
:104C1000E00AFFF7AFFE10EE100AFBF740FDC4E913
:104C2000240194ED160B51EC100BFBF77BFD00EE0D
:104C3000100AB5F9FE00F0EE481A00EE900AB0EE48
:104C4000681AA4F1E400F8EEE00AFFF793FE10EE14
:104C5000100AFBF724FDC4E92601BDEC028B70BDF0
:104C6000380D0020601400200000FA4500409C46EA
:104C700000007A4400EE100ADFED080ADFED081AA2
:104C8000B8EEC01A00EE101A71EE600AB8EEC00A53
:104C900080EEA11A21EE000A70470000000000001B
:104CA00000C0434401F044FC0A2001F0C7FEF9E7CC
:104CB00010B5FDF7C1FF03F0F9F9012808BF10BDD9
:104CC000BDE8104003F018B970B592B00025244833
:104CD00002950395049505950C950D950E950F95E8
:104CE0001095016841F080510160006800F080502B
:104CF00011901C48016841F44041016000680224A1
:104D000000F44040119001200090000401908001C7
:104D1000CDE906400F260896D820CDE909040420E5
:104D20000B906846FEF78EF908B172B6FEE7FEF703
:104D300045F808B172B6FEE74FF4A050CDE90E5029
:104D40004FF48050CDE90C64109005210CA8FEF7BB
:104D500071F8002804BF12B070BD72B6FEE7000003
:104D600040380240007000400448016841F470017E
:104D7000016003494FF000600860704788ED00E073
:104D800008ED00E00148FEF712BC00001808002002
:104D9000F0B402682C4B2D4C2D4D2E4EDFF8B8C0D0
:104DA000984218BFB0F1804F07D0A04218BFA84268
:104DB00003D0B04218BF604504D14F6822F07002A2
:104DC00047EA0202984218BFB0F1804F25D0A042B6
:104DD00018BFA84221D0B04218BF60451DD0A0F135
:104DE0008044B4F5A0341CBFA0F18044B4F5A234D3
:104DF00013D0A0F18044B4F5A4341CBFA0F18044CA
:104E0000B4F5C05409D0A0F18044B4F5E0541CBFFF
:104E1000A0F18044B4F5005403D1CC6822F4407270
:104E200022434C6922F08002224302608A68C262F7
:104E30000A688262984212BF6045096901634FF0B7
:104E400001014161F0BC70470000014000040040D6
:104E500000080040000C0040000401400000000079
:104E600070B504462DED0C8BB0EE43AAF0EE63AAAC
:104E7000B0EE429AF0EE629AB0EE41BAF0EE61BA4C
:104E8000B0EE40CAF0EE60CA9FED87DA9FED888BE6
:104E9000894E8A4D53EC182B51EC1A0BFBF712FC80
:104EA00040F0D08053EC182B51EC1C0BFBF70AFCA4
:104EB00009D153EC182B51EC1B0BFBF703FC08BF7B
:104EC00085ED03DA1CD051EC1B0B81F0004141EC65
:104ED000110BB0EE4C0AF0EE6C0A00F055FD9FEDA0
:104EE000781B51EC100B53EC112BFBF7C7FA9FED1D
:104EF000761B53EC112BFBF733FBFBF713FCE8603D
:104F000095ED033A95ED040A714933EE400A10EE2F
:104F1000100A9FED71AB8842C4BFA868401C07DC33
:104F200010EE100A6E49884284BFA868401E00D95E
:104F3000A86085ED053AB5F9000053EC182B00EE9A
:104F4000100AB8EEC00A30EE430A86ED000AB5F941
:104F5000020000EE100AB8EEC00A30EE430A86EDF9
:104F6000010AB5F9040000EE100AB8EEC00A30EEEE
:104F7000430A86ED020AB5F9060000EE100A51EC6C
:104F80001C0BB8EEC00A30EE430A86ED030AFBF7AD
:104F900099FB41D153EC182B51EC1B0BFBF792FB07
:104FA0003AD1B5F9000053EC1A2B2D3000EE100A5F
:104FB000B8EEC00A86ED000AB5F902002D3800EE01
:104FC000100AB8EEC00A86ED010AB5F904002D30CA
:104FD00000EE100AB8EEC00A86ED020AB5F9060026
:104FE0002D3800EE100A51EC190BB8EEC00A86ED10
:104FF000030AFBF743FAC4E900019FED3B0BC4E948
:10500000020153EC102B51EC190BFBF737FAC4E9F2
:105010000401C4E906010DE053EC1A2B51EC190B05
:10502000FBF72CFAC4E90201C4E90401C4E9000158
:10503000C4E9060195ED030A85ED040ABDEC0C8B6D
:1050400070BD00BF51EC1A0BFBF76CFB00EE100AB1
:10505000002085ED030A9FED261A2880B42169807F
:105060007DEE400AA88031EE400AE980C6ED000AD4
:1050700086ED010AC6ED020A86ED030A9FED1E0BBE
:1050800051EC190B53EC102BFBF7F8F9C4E90201B2
:10509000C4E90401C4E90001C4E90601BDEC0C8BBC
:1050A00070BD0000000000000000000000000000D3
:1050B000000000000000000020110020D8000020A7
:1050C00000000000008066406F1283C0CA210940C2
:1050D0000000AF4300000000000000000006AD40EB
:1050E0000000AFC300000000000000000006ADC0DB
:1050F0000000344300000000152ECD43BB2577404F
:1051000010B5806B0021C185C184FEF700FC10BD85
:1051100010B5806B0168496990F84120C1F3C01156
:1051200000234FF0200C212A10D1002918BFC3847E
:105130000CD0016801F10C0252E8001F21F0C001FF
:1051400042E80014002CF4D180F841C0016849699C
:1051500090F84220C1F38011222A29D1002918BFDA
:10516000C38525D001680C3151E8002F22F49072DC
:1051700041E80024002CF5D1016801F1140252E845
:10518000001F21F0010142E80014002CF4D1016B52
:1051900001290AD1016801F10C0252E8001F21F037
:1051A000100142E80014002CF4D180F842C00363DF
:1051B000416C41F010014164FEF7A9FB10BD10B530
:1051C0000146806B096809684FF0000311F4807F85
:1051D00008BFC38534D1016801F10C0252E8001FF9
:1051E00021F4807142E8001CBCF1000FF3D101688A
:1051F000143151E8002F22F0010241E8002CBCF1EB
:10520000000FF4D1016801F1140252E8001F21F0EF
:10521000400142E8001CBCF1000FF3D1202180F8CE
:105220004210016B01290BD1016801F10C0252E817
:10523000001F21F0100142E8001CBCF1000FF3D167
:105240004363016B012902D0FEF758FE10BD818D2A
:10525000FEF787FA10BD10B5806B01214163016B29
:10526000012902D0FEF710FF10BD818D4908FEF71D
:1052700078FA10BD08B590F8421022291CBF022010
:1052800008BD8268B2F5805F04BF01690029816AA8
:1052900018D0B2F5805F1DD0002A04BF0269002A31
:1052A00018D00268526802F07F020A70816A01F128
:1052B00001018162C18DA1F101010904090CC185BF
:1052C0000BD025E002685268C2F308020A80816AA6
:1052D000891CEEE702685268E7E70168CA6822F0B5
:1052E0002002CA600168CA6822F48072CA6001683C
:1052F0004A6922F001024A61202180F8421000210F
:105300004163026B012A08BF016303D0FEF7F6FD7B
:10531000002008BD016801F10C0252E8001F21F0D5
:10532000100142E80013002BF4D101680A6812F062
:10533000100F02D00A6849680091818DFEF711FABA
:10534000E6E7000070B5044600680169E26821F4F0
:105350004051114301612169A068E2690843616914
:10536000114301432068C26822F4037222F41442FC
:105370001143C16020684169A26921F44071114361
:1053800041612068A0F18041B1F588311CBFA0F1D6
:105390008041B1F58A3128D0FDF7FAFDE26900239A
:1053A00019213226B2F5004F214D626820D0A0FBB2
:1053B0000101930F9200FAF777FF0146A5FB012048
:1053C00040096FF01802424301EB820106EB011124
:1053D000A5FB0121490901F0F00202EB001001F0E8
:1053E0000F0108442168886070BDFDF7E1FDD5E735
:1053F000A0FB010192185B41FAF756FF0146A5FB9D
:105400000120420908466FF01801514300EB81006A
:1054100006EBC000A5FB00101301400900F0F801E5
:1054200003EB410100F0070008442168886070BD6B
:105430001F85EB5138B581620446828500201346F2
:105440006064222284F84220D4F83CC01E4ACCF882
:105450003C20D4F83CC01D4ACCF84020D4F83CC0D5
:105460001B4ACCF84C20E26B106520680A46011DEF
:10547000E06BFDF789F920680168406800902069B9
:1054800050B1206800F10C0151E8000F40F4807029
:1054900041E80002002AF4D1206800F1140151E82B
:1054A000000F40F0010041E80002002AF4D120681A
:1054B00000F1140151E8000F40F0400041E8000203
:1054C000002AF4D1002038BDBF510008575200080F
:1054D00011510008F8B504460068069E1F46006892
:1054E0000D4631EA000050D0B6F1FF3F48D0FDF73D
:1054F0009DFBC01BB0422CD85EB32068C16811F080
:10550000040F18BF802D3BD0402D1CBF016811F047
:10551000080F35D001684FF0000240680090206805
:1055200000F10C0151E8000F20F4907041E80003F5
:10553000002BF4D1206800F1140151E8000F20F095
:10554000010041E80003002BF4D1206B01280DD1AC
:1055500001E00320F8BD206800F10C0151E8000FC4
:1055600020F0100041E80003002BF4D1202084F843
:10557000420022630820606484F840200120F8BDC6
:105580002068006835EA0000AED10020F8BD0000B8
:105590000148FEF7BDB90000A00F00200148FEF74A
:1055A000B7B90000E80F002010B5044800F00EF86D
:1055B000BDE810400148FEF7ABB9000030100020F4
:1055C0000148FEF7A5B90000781000202DE9F84346
:1055D000264C01278046A760FEF713F9D8F8000093
:1055E000A0F18041B1F5904118BFBDE8F883204893
:1055F000E76000680168406800901E4800684068E5
:10560000C0F116006061162828D11B4D2761A5F551
:105610008E762878552804BF6878522809D1D6F8A4
:105620002211D6F81E01C4E90A014FF05200FEF71C
:10563000D7FDE87A552804BF287B53280AD1676034
:10564000D6F829012063D6F82D0160634FF053008E
:10565000FEF7C6FD16210848FAF75EFE4046BDE893
:10566000F84316220449FEF70FBC00004002002058
:1056700030100020C0100020001A0020FEE703B404
:1056800001984100009850EAC12018BF04204A0D3B
:1056900018BF40F0010040F2FF72B2EB515F08BF4B
:1056A00040F00200012808BF052002B0704700004A
:1056B00070B59B482DED020B2DED068B079D25F057
:1056C0000044A04218DC9748844202DC0AD10698C4
:1056D00040B19DED060BBDEC068B02B0BDE87040FD
:1056E00000F00BBB002DCCBF9FED8F0B9FED900BFF
:1056F000BDEC068B02B070BD8F48A04215DD8F480F
:10570000A042D8BF4FF0FF3458DD9DED060B51ECA1
:10571000100BFFF7B4FF042808BF00F005FB9DED58
:10572000060BBDEC068B02B070BD9DED060B51EC77
:10573000100B00F0A7FFCDE9060181489FED828B99
:10574000A0423CDD8248A0421FDD00249FED82ABD9
:105750009DED060B53EC1A2B51EC100BFAF7E7FDFD
:105760009DED060B41EC190B53EC1A2B51EC100B71
:10577000FAF784FE53EC182BFAF77AFE53EC192B48
:10578000FAF7EEFECDE9060149E09DED060B012496
:1057900053EC182B51EC100BFAF7C9FD9DED060BDD
:1057A00041EC190B53EC182B51EC100BFAF760FE7F
:1057B00053EC192BFAF7D4FECDE906012FE0684827
:1057C000A0421FDD02249FED689B9DED060B53EC6C
:1057D000192B51EC100BFAF751FE53EC182BFAF77A
:1057E000A6FD9DED060B41EC180B53EC192B51EC6B
:1057F000100BFAF73DFE53EC182BFAF7B1FECDE98A
:1058000006010CE09DED060B032453EC102B9FEDDD
:10581000580B51EC100BFAF7A3FECDE906019DEDF4
:10582000060B53EC102B51EC100BFAF727FE41EC52
:10583000180B53EC182BFAF721FE41EC190B4E48CC
:105840000621B0EE490AF0EE690A784400F0D9F971
:1058500053EC182B51EC100BFAF710FE41EC180B1F
:105860004648B0EE490AF0EE690A0521784400F096
:10587000C8F953EC192B51EC100BFAF7FFFD41EC72
:10588000100B51EC180B53EC102B002C0EDAFAF71E
:105890004EFD9DED061B53EC112BFAF7EFFD9DED30
:1058A000061B53EC112BFAF7E6FD35E0FAF73FFD46
:1058B0009DED061B53EC112BFAF7E0FD41EC100BAC
:1058C0002F48784400EBC40090ED001B51EC100B06
:1058D00053EC112BFAF7CCFD9DED061B53EC112B6D
:1058E000FAF7C6FD41EC100B2648784400EBC400E3
:1058F00090ED001B51EC100B53EC112BFAF7BBFD94
:1059000041EC100B002DA2BFBDEC068B02B070BDA8
:1059100051EC100B81F0004141EC100B01E700004D
:10592000000010440000F07F182D4454FB21F93F83
:10593000182D4454FB21F9BF0000DC3F0000203E3D
:105940000000F33F00000000000000000000F03FF6
:105950000000E63F000000000000000000000040E2
:105960000080034000000000000000000000F83F3D
:10597000000000000000F0BF6A2C0000202C000096
:10598000AA2B0000622B000070B56F4E2DED040BAA
:105990002DED048B82B0DDF824C0DDE907235C42E5
:1059A0002CF000411C4341EAD474069D22F00040D3
:1059B000B44205D86C422C4340EAD474B4420BD9AB
:1059C0009DED081B9DED060B02B0BDEC048B04B0F1
:1059D000BDE8704000F09BB9ACF14054A4F17F6485
:1059E0001C430BD0022404EAAC7444EAD27405438D
:1059F0009FED578B9FED582B07D015E09DED060BC3
:105A000051EC100B00F0B6F942E0002C11BF012C54
:105A10009DED060B02B0BDEC048B04BF04B070BD5D
:105A2000022C38D0032C3BD00B439FED4D1B9FED38
:105A30004E0B0AD0B14218D1B04209D121F08041B9
:105A400020F08040099107900FE0002A15DA10E05D
:105A5000474B7B44002C08BF93ED000B0DD0012C6D
:105A600010D0022C17D0032C1AD0B0421DD1002A1E
:105A700003DAB0EE410AF0EE610A02B0BDEC048B2D
:105A800004B070BD93ED000B51EC100B81F00041A0
:105A900041EC100BF1E7B0EE480AF0EE680AECE7D3
:105AA000B0EE420AF0EE620AE7E7401A00159FEDF9
:105AB000329B3C28C8BF8DED000B17DCBCF1000FFA
:105AC000BCBF10F13C0F8DED009B0FDB9DED080B73
:105AD00053EC102B9DED060B51EC100BFAF740FD2B
